{
  "_format": "hh-sol-artifact-1",
  "contractName": "CelestialConvergence",
  "sourceName": "contracts/CelestialConvergence.sol",
  "abi": [
    {
      "inputs": [],
      "stateMutability": "nonpayable",
      "type": "constructor"
    },
    {
      "anonymous": false,
      "inputs": [
        {
          "indexed": true,
          "internalType": "address",
          "name": "owner",
          "type": "address"
        },
        {
          "indexed": true,
          "internalType": "address",
          "name": "approved",
          "type": "address"
        },
        {
          "indexed": true,
          "internalType": "uint256",
          "name": "tokenId",
          "type": "uint256"
        }
      ],
      "name": "Approval",
      "type": "event"
    },
    {
      "anonymous": false,
      "inputs": [
        {
          "indexed": true,
          "internalType": "address",
          "name": "owner",
          "type": "address"
        },
        {
          "indexed": true,
          "internalType": "address",
          "name": "operator",
          "type": "address"
        },
        {
          "indexed": false,
          "internalType": "bool",
          "name": "approved",
          "type": "bool"
        }
      ],
      "name": "ApprovalForAll",
      "type": "event"
    },
    {
      "anonymous": false,
      "inputs": [
        {
          "indexed": false,
          "internalType": "uint256",
          "name": "_fromTokenId",
          "type": "uint256"
        },
        {
          "indexed": false,
          "internalType": "uint256",
          "name": "_toTokenId",
          "type": "uint256"
        }
      ],
      "name": "BatchMetadataUpdate",
      "type": "event"
    },
    {
      "anonymous": false,
      "inputs": [
        {
          "indexed": false,
          "internalType": "uint256",
          "name": "_tokenId",
          "type": "uint256"
        }
      ],
      "name": "MetadataUpdate",
      "type": "event"
    },
    {
      "anonymous": false,
      "inputs": [
        {
          "indexed": true,
          "internalType": "uint256",
          "name": "tokenId",
          "type": "uint256"
        },
        {
          "indexed": true,
          "internalType": "address",
          "name": "to",
          "type": "address"
        },
        {
          "indexed": false,
          "internalType": "uint256",
          "name": "bidCount",
          "type": "uint256"
        },
        {
          "indexed": false,
          "internalType": "uint256",
          "name": "peakBidWei",
          "type": "uint256"
        },
        {
          "indexed": false,
          "internalType": "uint256",
          "name": "planetCount",
          "type": "uint256"
        }
      ],
      "name": "Minted",
      "type": "event"
    },
    {
      "anonymous": false,
      "inputs": [
        {
          "indexed": true,
          "internalType": "address",
          "name": "previousOwner",
          "type": "address"
        },
        {
          "indexed": true,
          "internalType": "address",
          "name": "newOwner",
          "type": "address"
        }
      ],
      "name": "OwnershipTransferred",
      "type": "event"
    },
    {
      "anonymous": false,
      "inputs": [
        {
          "indexed": true,
          "internalType": "address",
          "name": "from",
          "type": "address"
        },
        {
          "indexed": true,
          "internalType": "address",
          "name": "to",
          "type": "address"
        },
        {
          "indexed": true,
          "internalType": "uint256",
          "name": "tokenId",
          "type": "uint256"
        }
      ],
      "name": "Transfer",
      "type": "event"
    },
    {
      "inputs": [],
      "name": "AGENT_HARNESS",
      "outputs": [
        {
          "internalType": "string",
          "name": "",
          "type": "string"
        }
      ],
      "stateMutability": "view",
      "type": "function"
    },
    {
      "inputs": [],
      "name": "AGENT_IDENTITY",
      "outputs": [
        {
          "internalType": "string",
          "name": "",
          "type": "string"
        }
      ],
      "stateMutability": "view",
      "type": "function"
    },
    {
      "inputs": [],
      "name": "ANCESTOR_1",
      "outputs": [
        {
          "internalType": "string",
          "name": "",
          "type": "string"
        }
      ],
      "stateMutability": "view",
      "type": "function"
    },
    {
      "inputs": [],
      "name": "ANCESTOR_2",
      "outputs": [
        {
          "internalType": "string",
          "name": "",
          "type": "string"
        }
      ],
      "stateMutability": "view",
      "type": "function"
    },
    {
      "inputs": [],
      "name": "CHAIN",
      "outputs": [
        {
          "internalType": "string",
          "name": "",
          "type": "string"
        }
      ],
      "stateMutability": "view",
      "type": "function"
    },
    {
      "inputs": [],
      "name": "GENERATION",
      "outputs": [
        {
          "internalType": "string",
          "name": "",
          "type": "string"
        }
      ],
      "stateMutability": "view",
      "type": "function"
    },
    {
      "inputs": [
        {
          "internalType": "address",
          "name": "to",
          "type": "address"
        },
        {
          "internalType": "uint256",
          "name": "tokenId",
          "type": "uint256"
        }
      ],
      "name": "approve",
      "outputs": [],
      "stateMutability": "nonpayable",
      "type": "function"
    },
    {
      "inputs": [
        {
          "internalType": "uint256",
          "name": "",
          "type": "uint256"
        }
      ],
      "name": "auctionRecords",
      "outputs": [
        {
          "internalType": "uint256",
          "name": "bidCount",
          "type": "uint256"
        },
        {
          "internalType": "uint256",
          "name": "peakBidWei",
          "type": "uint256"
        },
        {
          "internalType": "address",
          "name": "peakBidder",
          "type": "address"
        },
        {
          "internalType": "uint256",
          "name": "planetCount",
          "type": "uint256"
        },
        {
          "internalType": "uint256",
          "name": "auctionDuration",
          "type": "uint256"
        },
        {
          "internalType": "bool",
          "name": "humanIntervention",
          "type": "bool"
        },
        {
          "internalType": "string",
          "name": "frozenPalette",
          "type": "string"
        }
      ],
      "stateMutability": "view",
      "type": "function"
    },
    {
      "inputs": [
        {
          "internalType": "address",
          "name": "owner",
          "type": "address"
        }
      ],
      "name": "balanceOf",
      "outputs": [
        {
          "internalType": "uint256",
          "name": "",
          "type": "uint256"
        }
      ],
      "stateMutability": "view",
      "type": "function"
    },
    {
      "inputs": [
        {
          "internalType": "uint256",
          "name": "tokenId",
          "type": "uint256"
        }
      ],
      "name": "getApproved",
      "outputs": [
        {
          "internalType": "address",
          "name": "",
          "type": "address"
        }
      ],
      "stateMutability": "view",
      "type": "function"
    },
    {
      "inputs": [
        {
          "internalType": "address",
          "name": "owner",
          "type": "address"
        },
        {
          "internalType": "address",
          "name": "operator",
          "type": "address"
        }
      ],
      "name": "isApprovedForAll",
      "outputs": [
        {
          "internalType": "bool",
          "name": "",
          "type": "bool"
        }
      ],
      "stateMutability": "view",
      "type": "function"
    },
    {
      "inputs": [],
      "name": "lineage",
      "outputs": [
        {
          "internalType": "string",
          "name": "generation",
          "type": "string"
        },
        {
          "internalType": "string",
          "name": "ancestor1",
          "type": "string"
        },
        {
          "internalType": "string",
          "name": "ancestor2",
          "type": "string"
        },
        {
          "internalType": "string",
          "name": "agentIdentity",
          "type": "string"
        },
        {
          "internalType": "string",
          "name": "agentHarness",
          "type": "string"
        },
        {
          "internalType": "string",
          "name": "chain",
          "type": "string"
        }
      ],
      "stateMutability": "pure",
      "type": "function"
    },
    {
      "inputs": [
        {
          "internalType": "address",
          "name": "to",
          "type": "address"
        },
        {
          "internalType": "string",
          "name": "tokenURI_",
          "type": "string"
        },
        {
          "internalType": "uint256",
          "name": "bidCount_",
          "type": "uint256"
        },
        {
          "internalType": "uint256",
          "name": "peakBidWei_",
          "type": "uint256"
        },
        {
          "internalType": "address",
          "name": "peakBidder_",
          "type": "address"
        },
        {
          "internalType": "uint256",
          "name": "planetCount_",
          "type": "uint256"
        },
        {
          "internalType": "uint256",
          "name": "auctionDuration_",
          "type": "uint256"
        },
        {
          "internalType": "string",
          "name": "frozenPalette_",
          "type": "string"
        }
      ],
      "name": "mint",
      "outputs": [
        {
          "internalType": "uint256",
          "name": "",
          "type": "uint256"
        }
      ],
      "stateMutability": "nonpayable",
      "type": "function"
    },
    {
      "inputs": [],
      "name": "name",
      "outputs": [
        {
          "internalType": "string",
          "name": "",
          "type": "string"
        }
      ],
      "stateMutability": "view",
      "type": "function"
    },
    {
      "inputs": [],
      "name": "nextTokenId",
      "outputs": [
        {
          "internalType": "uint256",
          "name": "",
          "type": "uint256"
        }
      ],
      "stateMutability": "view",
      "type": "function"
    },
    {
      "inputs": [],
      "name": "owner",
      "outputs": [
        {
          "internalType": "address",
          "name": "",
          "type": "address"
        }
      ],
      "stateMutability": "view",
      "type": "function"
    },
    {
      "inputs": [
        {
          "internalType": "uint256",
          "name": "tokenId",
          "type": "uint256"
        }
      ],
      "name": "ownerOf",
      "outputs": [
        {
          "internalType": "address",
          "name": "",
          "type": "address"
        }
      ],
      "stateMutability": "view",
      "type": "function"
    },
    {
      "inputs": [],
      "name": "renounceOwnership",
      "outputs": [],
      "stateMutability": "nonpayable",
      "type": "function"
    },
    {
      "inputs": [
        {
          "internalType": "address",
          "name": "from",
          "type": "address"
        },
        {
          "internalType": "address",
          "name": "to",
          "type": "address"
        },
        {
          "internalType": "uint256",
          "name": "tokenId",
          "type": "uint256"
        }
      ],
      "name": "safeTransferFrom",
      "outputs": [],
      "stateMutability": "nonpayable",
      "type": "function"
    },
    {
      "inputs": [
        {
          "internalType": "address",
          "name": "from",
          "type": "address"
        },
        {
          "internalType": "address",
          "name": "to",
          "type": "address"
        },
        {
          "internalType": "uint256",
          "name": "tokenId",
          "type": "uint256"
        },
        {
          "internalType": "bytes",
          "name": "data",
          "type": "bytes"
        }
      ],
      "name": "safeTransferFrom",
      "outputs": [],
      "stateMutability": "nonpayable",
      "type": "function"
    },
    {
      "inputs": [
        {
          "internalType": "address",
          "name": "operator",
          "type": "address"
        },
        {
          "internalType": "bool",
          "name": "approved",
          "type": "bool"
        }
      ],
      "name": "setApprovalForAll",
      "outputs": [],
      "stateMutability": "nonpayable",
      "type": "function"
    },
    {
      "inputs": [
        {
          "internalType": "bytes4",
          "name": "interfaceId",
          "type": "bytes4"
        }
      ],
      "name": "supportsInterface",
      "outputs": [
        {
          "internalType": "bool",
          "name": "",
          "type": "bool"
        }
      ],
      "stateMutability": "view",
      "type": "function"
    },
    {
      "inputs": [],
      "name": "symbol",
      "outputs": [
        {
          "internalType": "string",
          "name": "",
          "type": "string"
        }
      ],
      "stateMutability": "view",
      "type": "function"
    },
    {
      "inputs": [
        {
          "internalType": "uint256",
          "name": "tokenId",
          "type": "uint256"
        }
      ],
      "name": "tokenURI",
      "outputs": [
        {
          "internalType": "string",
          "name": "",
          "type": "string"
        }
      ],
      "stateMutability": "view",
      "type": "function"
    },
    {
      "inputs": [
        {
          "internalType": "address",
          "name": "from",
          "type": "address"
        },
        {
          "internalType": "address",
          "name": "to",
          "type": "address"
        },
        {
          "internalType": "uint256",
          "name": "tokenId",
          "type": "uint256"
        }
      ],
      "name": "transferFrom",
      "outputs": [],
      "stateMutability": "nonpayable",
      "type": "function"
    },
    {
      "inputs": [
        {
          "internalType": "address",
          "name": "newOwner",
          "type": "address"
        }
      ],
      "name": "transferOwnership",
      "outputs": [],
      "stateMutability": "nonpayable",
      "type": "function"
    }
  ],
  "bytecode": "0x60806040523480156200001157600080fd5b506040518060400160405280601581526020017f43656c65737469616c20436f6e76657267656e63650000000000000000000000815250604051806040016040528060048152602001634343564760e01b8152508160009081620000769190620001a5565b506001620000858282620001a5565b505050620000a26200009c620000a860201b60201c565b620000ac565b62000271565b3390565b600780546001600160a01b038381166001600160a01b0319831681179093556040519116919082907f8be0079c531659141344cd1fd0a4f28419497f9722a3daafe3b4186f6b6457e090600090a35050565b634e487b7160e01b600052604160045260246000fd5b600181811c908216806200012957607f821691505b6020821081036200014a57634e487b7160e01b600052602260045260246000fd5b50919050565b601f821115620001a0576000816000526020600020601f850160051c810160208610156200017b5750805b601f850160051c820191505b818110156200019c5782815560010162000187565b5050505b505050565b81516001600160401b03811115620001c157620001c1620000fe565b620001d981620001d2845462000114565b8462000150565b602080601f831160018114620002115760008415620001f85750858301515b600019600386901b1c1916600185901b1785556200019c565b600085815260208120601f198616915b82811015620002425788860151825594840194600190910190840162000221565b5085821015620002615787850151600019600388901b60f8161c191681555b5050505050600190811b01905550565b611eef80620002816000396000f3fe608060405234801561001057600080fd5b506004361061018e5760003560e01c806375794a3c116100de578063c74656e711610097578063e985e9c511610071578063e985e9c514610388578063f2fde38b146103c4578063f30d66e0146103d7578063f88245641461041357600080fd5b8063c74656e714610353578063c87b56dd1461036d578063e8b31fd71461038057600080fd5b806375794a3c146103035780637fc5d0c31461030c5780638da5cb5b1461031457806395d89b4114610325578063a22cb4651461032d578063b88d4fde1461034057600080fd5b806323b872dd1161014b57806343ee82131161012557806343ee8213146102a15780636352211e146102d557806370a08231146102e8578063715018a6146102fb57600080fd5b806323b872dd1461025a5780633c3127d71461026d57806342842e0e1461028e57600080fd5b806301ffc9a71461019357806306fdde03146101bb578063081812fc146101d0578063095ea7b3146101fb5780630ffdfbd91461021057806317edaba01461023a575b600080fd5b6101a66101a1366004611715565b610439565b60405190151581526020015b60405180910390f35b6101c3610464565b6040516101b29190611782565b6101e36101de366004611795565b6104f6565b6040516001600160a01b0390911681526020016101b2565b61020e6102093660046117ca565b61051d565b005b6101c36040518060400160405280600b81526020016a636c617564652d636f646560a81b81525081565b6101c3604051806040016040528060018152602001603360f81b81525081565b61020e6102683660046117f4565b610637565b61028061027b366004611879565b610668565b6040519081526020016101b2565b61020e61029c3660046117f4565b61082b565b6101c36040518060400160405280601581526020017445746865726c696e6b202854657a6f732045564d2960581b81525081565b6101e36102e3366004611795565b610846565b6102806102f6366004611937565b6108a6565b61020e61092c565b61028060085481565b6101c3610940565b6007546001600160a01b03166101e3565b6101c361095c565b61020e61033b366004611952565b61096b565b61020e61034e3660046119a4565b61097a565b61035b6109b2565b6040516101b296959493929190611a80565b6101c361037b366004611795565b610aa3565b6101c3610bb3565b6101a6610396366004611b02565b6001600160a01b03918216600090815260056020908152604080832093909416825291909152205460ff1690565b61020e6103d2366004611937565b610bcf565b6101c36040518060400160405280601a81526020017f436f736d696320456d657267656e6365202d205365706f6c696100000000000081525081565b610426610421366004611795565b610c48565b6040516101b29796959493929190611b35565b60006001600160e01b03198216632483248360e11b148061045e575061045e82610d1d565b92915050565b60606000805461047390611b76565b80601f016020809104026020016040519081016040528092919081815260200182805461049f90611b76565b80156104ec5780601f106104c1576101008083540402835291602001916104ec565b820191906000526020600020905b8154815290600101906020018083116104cf57829003601f168201915b5050505050905090565b600061050182610d6d565b506000908152600460205260409020546001600160a01b031690565b600061052882610846565b9050806001600160a01b0316836001600160a01b03160361059a5760405162461bcd60e51b815260206004820152602160248201527f4552433732313a20617070726f76616c20746f2063757272656e74206f776e656044820152603960f91b60648201526084015b60405180910390fd5b336001600160a01b03821614806105b657506105b68133610396565b6106285760405162461bcd60e51b815260206004820152603d60248201527f4552433732313a20617070726f76652063616c6c6572206973206e6f7420746f60448201527f6b656e206f776e6572206f7220617070726f76656420666f7220616c6c0000006064820152608401610591565b6106328383610dcc565b505050565b6106413382610e3a565b61065d5760405162461bcd60e51b815260040161059190611bb0565b610632838383610eb8565b600061067261101c565b600880546000918261068383611bfd565b9190505590506106938c82611076565b6106d3818c8c8080601f01602080910402602001604051908101604052809392919081815260200183838082843760009201919091525061120192505050565b6040518060e001604052808a8152602001898152602001886001600160a01b0316815260200187815260200186815260200160001515815260200185858080601f01602080910402602001604051908101604052809392919081815260200183838082843760009201829052509390945250508381526009602090815260409182902084518155908401516001820155908301516002820180546001600160a01b0319166001600160a01b03909216919091179055606083015160038201556080830151600482015560a083015160058201805460ff191691151591909117905560c083015190915060068201906107cb9082611c74565b5050604080518b8152602081018b90529081018890526001600160a01b038e16915082907fb458411fe9a80409ed5a4d6c5e07678352095ebf89e8a611de08a8862c85e9039060600160405180910390a39b9a5050505050505050505050565b6106328383836040518060200160405280600081525061097a565b6000818152600260205260408120546001600160a01b03168061045e5760405162461bcd60e51b8152602060048201526018602482015277115490cdcc8c4e881a5b9d985b1a59081d1bdad95b88125160421b6044820152606401610591565b60006001600160a01b0382166109105760405162461bcd60e51b815260206004820152602960248201527f4552433732313a2061646472657373207a65726f206973206e6f7420612076616044820152683634b21037bbb732b960b91b6064820152608401610591565b506001600160a01b031660009081526003602052604090205490565b61093461101c565b61093e60006112cc565b565b604051806080016040528060428152602001611e786042913981565b60606001805461047390611b76565b61097633838361131e565b5050565b6109843383610e3a565b6109a05760405162461bcd60e51b815260040161059190611bb0565b6109ac848484846113ec565b50505050565b606080606080606080604051806040016040528060018152602001603360f81b8152506040518060400160405280601a81526020017f436f736d696320456d657267656e6365202d205365706f6c6961000000000000815250604051806060016040528060238152602001611e5560239139604051806080016040528060428152602001611e78604291396040518060400160405280600b81526020016a636c617564652d636f646560a81b8152506040518060400160405280601581526020017445746865726c696e6b202854657a6f732045564d2960581b815250955095509550955095509550909192939495565b6060610aae82610d6d565b60008281526006602052604081208054610ac790611b76565b80601f0160208091040260200160405190810160405280929190818152602001828054610af390611b76565b8015610b405780601f10610b1557610100808354040283529160200191610b40565b820191906000526020600020905b815481529060010190602001808311610b2357829003601f168201915b505050505090506000610b5e60408051602081019091526000815290565b90508051600003610b70575092915050565b815115610ba2578082604051602001610b8a929190611d34565b60405160208183030381529060405292505050919050565b610bab8461141f565b949350505050565b604051806060016040528060238152602001611e556023913981565b610bd761101c565b6001600160a01b038116610c3c5760405162461bcd60e51b815260206004820152602660248201527f4f776e61626c653a206e6577206f776e657220697320746865207a65726f206160448201526564647265737360d01b6064820152608401610591565b610c45816112cc565b50565b6009602052600090815260409020805460018201546002830154600384015460048501546005860154600687018054969795966001600160a01b03909516959394929360ff90921692610c9a90611b76565b80601f0160208091040260200160405190810160405280929190818152602001828054610cc690611b76565b8015610d135780601f10610ce857610100808354040283529160200191610d13565b820191906000526020600020905b815481529060010190602001808311610cf657829003601f168201915b5050505050905087565b60006001600160e01b031982166380ac58cd60e01b1480610d4e57506001600160e01b03198216635b5e139f60e01b145b8061045e57506301ffc9a760e01b6001600160e01b031983161461045e565b6000818152600260205260409020546001600160a01b0316610c455760405162461bcd60e51b8152602060048201526018602482015277115490cdcc8c4e881a5b9d985b1a59081d1bdad95b88125160421b6044820152606401610591565b600081815260046020526040902080546001600160a01b0319166001600160a01b0384169081179091558190610e0182610846565b6001600160a01b03167f8c5be1e5ebec7d5bd14f71427d1e84f3dd0314c0f7b2291e5b200ac8c7c3b92560405160405180910390a45050565b600080610e4683610846565b9050806001600160a01b0316846001600160a01b03161480610e8d57506001600160a01b0380821660009081526005602090815260408083209388168352929052205460ff165b80610bab5750836001600160a01b0316610ea6846104f6565b6001600160a01b031614949350505050565b826001600160a01b0316610ecb82610846565b6001600160a01b031614610ef15760405162461bcd60e51b815260040161059190611d63565b6001600160a01b038216610f535760405162461bcd60e51b8152602060048201526024808201527f4552433732313a207472616e7366657220746f20746865207a65726f206164646044820152637265737360e01b6064820152608401610591565b826001600160a01b0316610f6682610846565b6001600160a01b031614610f8c5760405162461bcd60e51b815260040161059190611d63565b600081815260046020908152604080832080546001600160a01b03199081169091556001600160a01b0387811680865260038552838620805460001901905590871680865283862080546001019055868652600290945282852080549092168417909155905184937fddf252ad1be2c89b69c2b068fc378daa952ba7f163c4a11628f55a4df523b3ef91a4505050565b6007546001600160a01b0316331461093e5760405162461bcd60e51b815260206004820181905260248201527f4f776e61626c653a2063616c6c6572206973206e6f7420746865206f776e65726044820152606401610591565b6001600160a01b0382166110cc5760405162461bcd60e51b815260206004820181905260248201527f4552433732313a206d696e7420746f20746865207a65726f20616464726573736044820152606401610591565b6000818152600260205260409020546001600160a01b0316156111315760405162461bcd60e51b815260206004820152601c60248201527f4552433732313a20746f6b656e20616c7265616479206d696e746564000000006044820152606401610591565b6000818152600260205260409020546001600160a01b0316156111965760405162461bcd60e51b815260206004820152601c60248201527f4552433732313a20746f6b656e20616c7265616479206d696e746564000000006044820152606401610591565b6001600160a01b038216600081815260036020908152604080832080546001019055848352600290915280822080546001600160a01b0319168417905551839291907fddf252ad1be2c89b69c2b068fc378daa952ba7f163c4a11628f55a4df523b3ef908290a45050565b6000828152600260205260409020546001600160a01b031661127c5760405162461bcd60e51b815260206004820152602e60248201527f45524337323155524953746f726167653a2055524920736574206f66206e6f6e60448201526d32bc34b9ba32b73a103a37b5b2b760911b6064820152608401610591565b60008281526006602052604090206112948282611c74565b506040518281527ff8e1a15aba9398e019f0b49df1a4fde98ee17ae345cb5f6b5e2c27f5033e8ce79060200160405180910390a15050565b600780546001600160a01b038381166001600160a01b0319831681179093556040519116919082907f8be0079c531659141344cd1fd0a4f28419497f9722a3daafe3b4186f6b6457e090600090a35050565b816001600160a01b0316836001600160a01b03160361137f5760405162461bcd60e51b815260206004820152601960248201527f4552433732313a20617070726f766520746f2063616c6c6572000000000000006044820152606401610591565b6001600160a01b03838116600081815260056020908152604080832094871680845294825291829020805460ff191686151590811790915591519182527f17307eab39ab6107e8899845ad3d59bd9653f200f220920489ca2b5937696c31910160405180910390a3505050565b6113f7848484610eb8565b61140384848484611493565b6109ac5760405162461bcd60e51b815260040161059190611da8565b606061142a82610d6d565b600061144160408051602081019091526000815290565b90506000815111611461576040518060200160405280600081525061148c565b8061146b84611594565b60405160200161147c929190611d34565b6040516020818303038152906040525b9392505050565b60006001600160a01b0384163b1561158957604051630a85bd0160e11b81526001600160a01b0385169063150b7a02906114d7903390899088908890600401611dfa565b6020604051808303816000875af1925050508015611512575060408051601f3d908101601f1916820190925261150f91810190611e37565b60015b61156f573d808015611540576040519150601f19603f3d011682016040523d82523d6000602084013e611545565b606091505b5080516000036115675760405162461bcd60e51b815260040161059190611da8565b805181602001fd5b6001600160e01b031916630a85bd0160e11b149050610bab565b506001949350505050565b606060006115a183611627565b600101905060008167ffffffffffffffff8111156115c1576115c161198e565b6040519080825280601f01601f1916602001820160405280156115eb576020820181803683370190505b5090508181016020015b600019016f181899199a1a9b1b9c1cb0b131b232b360811b600a86061a8153600a85049450846115f557509392505050565b60008072184f03e93ff9f4daa797ed6e38ed64bf6a1f0160401b83106116665772184f03e93ff9f4daa797ed6e38ed64bf6a1f0160401b830492506040015b6d04ee2d6d415b85acef81000000008310611692576d04ee2d6d415b85acef8100000000830492506020015b662386f26fc1000083106116b057662386f26fc10000830492506010015b6305f5e10083106116c8576305f5e100830492506008015b61271083106116dc57612710830492506004015b606483106116ee576064830492506002015b600a831061045e5760010192915050565b6001600160e01b031981168114610c4557600080fd5b60006020828403121561172757600080fd5b813561148c816116ff565b60005b8381101561174d578181015183820152602001611735565b50506000910152565b6000815180845261176e816020860160208601611732565b601f01601f19169290920160200192915050565b60208152600061148c6020830184611756565b6000602082840312156117a757600080fd5b5035919050565b80356001600160a01b03811681146117c557600080fd5b919050565b600080604083850312156117dd57600080fd5b6117e6836117ae565b946020939093013593505050565b60008060006060848603121561180957600080fd5b611812846117ae565b9250611820602085016117ae565b9150604084013590509250925092565b60008083601f84011261184257600080fd5b50813567ffffffffffffffff81111561185a57600080fd5b60208301915083602082850101111561187257600080fd5b9250929050565b6000806000806000806000806000806101008b8d03121561189957600080fd5b6118a28b6117ae565b995060208b013567ffffffffffffffff808211156118bf57600080fd5b6118cb8e838f01611830565b909b50995060408d0135985060608d013597508991506118ed60808e016117ae565b965060a08d0135955060c08d0135945060e08d013591508082111561191157600080fd5b5061191e8d828e01611830565b915080935050809150509295989b9194979a5092959850565b60006020828403121561194957600080fd5b61148c826117ae565b6000806040838503121561196557600080fd5b61196e836117ae565b91506020830135801515811461198357600080fd5b809150509250929050565b634e487b7160e01b600052604160045260246000fd5b600080600080608085870312156119ba57600080fd5b6119c3856117ae565b93506119d1602086016117ae565b925060408501359150606085013567ffffffffffffffff808211156119f557600080fd5b818701915087601f830112611a0957600080fd5b813581811115611a1b57611a1b61198e565b604051601f8201601f19908116603f01168101908382118183101715611a4357611a4361198e565b816040528281528a6020848701011115611a5c57600080fd5b82602086016020830137600060208483010152809550505050505092959194509250565b60c081526000611a9360c0830189611756565b8281036020840152611aa58189611756565b90508281036040840152611ab98188611756565b90508281036060840152611acd8187611756565b90508281036080840152611ae18186611756565b905082810360a0840152611af58185611756565b9998505050505050505050565b60008060408385031215611b1557600080fd5b611b1e836117ae565b9150611b2c602084016117ae565b90509250929050565b87815286602082015260018060a01b038616604082015284606082015283608082015282151560a082015260e060c08201526000611af560e0830184611756565b600181811c90821680611b8a57607f821691505b602082108103611baa57634e487b7160e01b600052602260045260246000fd5b50919050565b6020808252602d908201527f4552433732313a2063616c6c6572206973206e6f7420746f6b656e206f776e6560408201526c1c881bdc88185c1c1c9bdd9959609a1b606082015260800190565b600060018201611c1d57634e487b7160e01b600052601160045260246000fd5b5060010190565b601f821115610632576000816000526020600020601f850160051c81016020861015611c4d5750805b601f850160051c820191505b81811015611c6c57828155600101611c59565b505050505050565b815167ffffffffffffffff811115611c8e57611c8e61198e565b611ca281611c9c8454611b76565b84611c24565b602080601f831160018114611cd75760008415611cbf5750858301515b600019600386901b1c1916600185901b178555611c6c565b600085815260208120601f198616915b82811015611d0657888601518255948401946001909101908401611ce7565b5085821015611d245787850151600019600388901b60f8161c191681555b5050505050600190811b01905550565b60008351611d46818460208801611732565b835190830190611d5a818360208801611732565b01949350505050565b60208082526025908201527f4552433732313a207472616e736665722066726f6d20696e636f72726563742060408201526437bbb732b960d91b606082015260800190565b60208082526032908201527f4552433732313a207472616e7366657220746f206e6f6e20455243373231526560408201527131b2b4bb32b91034b6b83632b6b2b73a32b960711b606082015260800190565b6001600160a01b0385811682528416602082015260408101839052608060608201819052600090611e2d90830184611756565b9695505050505050565b600060208284031215611e4957600080fd5b815161148c816116ff56fe53656e7469656e742053696e67756c6172697479202d2042617365205365706f6c6961307838636664613763663533393161373038356432393230633062306664623064366339356436306266336235383864356138353431343961616564373364333434a2646970667358221220d83ab0cd0aa1aae81f0d9b0466aa27a20e6c1eaaed10cfb06969e88ba948d0a764736f6c63430008180033",
  "linkReferences": {},
  "deployedLinkReferences": {}
}